:020000040800F2
:10000000A81900209D010008332500084721000899
:1000100031250008770400082530000800000000A2
:1000200000000000000000000000000005010008C2
:10003000A30400080000000049010008352500085D
:10004000B7010008B7010008B7010008B7010008B0
:10005000B7010008B7010008B7010008B7010008A0
:10006000B7010008B7010008B7010008B701000890
:10007000B7010008B7010008B7010008B701000880
:10008000B7010008B7010008B7010008B701000870
:10009000B7010008B7010008B7010008B701000860
:1000A000B7010008B7010008B7010008B701000850
:1000B000B7010008B7010008DD250008B7010008F6
:1000C000B7010008B7010008B7010008B701000830
:1000D000B7010008B7010008B7010008492F000860
:1000E000B7010008B7010008B7010008DFF810D019
:1000F00000F022F900480047A9360008AFF300805D
:10010000A8190020224B19680868B0E8F00F80F3A6
:100110000988BFF36F8F4FF0000080F311884EF015
:100120000D0E70470000000006480068006880F36C
:10013000088862B661B6BFF34F8FBFF36F8F00DFE1
:1001400000BF00BF08ED00E0EFF30980BFF36F8F41
:100150000F4B1A6820E9F00F106008B54FF05000FF
:1001600080F31188BFF34F8FBFF36F8F03F050FF01
:100170004FF0000080F31188BDE808401968086856
:10018000B0E8F00F80F30988BFF36F8F704700BFAE
:1001900020000020EFF305807047000006488047EC
:1001A00006480047FEE7FEE7FEE7FEE7FEE7FEE75C
:1001B000FEE7FEE7FEE7FEE7D9250008ED000008B0
:1001C00040EA01039B0703D009E008C9121F08C0D9
:1001D000042AFAD203E011F8013B00F8013B521E59
:1001E000F9D27047D2B201E000F8012B491EFBD2D0
:1001F00070470022F6E710B513460A460446194632
:10020000FFF7F0FF204610BD30B505462A460B46E5
:1002100012F8010B13F8014B08B1A042F8D01CB141
:10022000002802D06D1CF1E7284630BDCAB2401E3E
:1002300010F8011F8A4202D00029F9D1002070472E
:10024000421C10F8011B0029FBD1801A704730B501
:1002500005460020034600E05B1C934205D2EC5C9F
:10026000C85C201A01D1002CF6D130BD0022CBB2DF
:100270000178994200D10246401C0029F8D110466D
:10028000704770B5064602F0EFFE046805460A2284
:100290000021304600F018F82C6070BD30B50B46D8
:1002A000014600202022012409E021FA02F59D42A6
:1002B00005D303FA02F5491B04FA02F52844151E7A
:1002C000A2F10102F1DC30BD2DE9F04791460F4665
:1002D00080460446002614F8015B2DB100F03EF87C
:1002E0000068405DC007F6D12B2D02D02D2D18D00F
:1002F000641E4A463946204600F034F827B1396872
:10030000A14201D1C7F8008071054FF002040BD55E
:100310004042002803DD02F0A7FE0460A007BDE80C
:10032000F08746F48066E4E70028F8DA02F09CFEE5
:1003300004606FF00040F2E7064C074D06E0E0680D
:1003400040F0010394E8070098471034AC42F6D31C
:10035000FFF7D0FEA0480008C048000800487047DA
:100360009C4800082DE9F05F82460078002715467A
:100370008B460AF10104B946302801D09DB113E043
:1003800014F8010B0127782803D0582801D045B173
:100390000AE00DB1102D07D10027102514F8010B2C
:1003A00002E0082500E00A250026B0460EE005FB25
:1003B000080005FB06F1012701EB10461FFA80F843
:1003C000B6F5803F00D3B94614F8010B294600F07A
:1003D00018F80028EBDABBF1000F05D00FB1641E4E
:1003E00000E05446CBF80040B9F1000F06D002F00F
:1003F0003BFE02210160C81EBDE8F09F48EA0640AE
:10040000FAE73A2800D2303820F02002412A01D3FE
:10041000A2F13700884201D34FF0FF30704700004F
:1004200070B5044600688168C943C90717D181685F
:1004300021F00101816000F03BFB05460AE000BFAE
:1004400000F036FB401B022804D920688068C043B6
:10045000C00706D020688068C043C007F0D00020E5
:1004600070BDA06A40F01000A062E06A40F0010098
:10047000E062012070BDFEE730B590F840500124E5
:10048000AC40C56B6C60046863604368102B036804
:1004900003D099600068C26030BD9A600068C16096
:1004A00030BD704772B6FEE7F8B50024009490F8AE
:1004B00024202546012A12D0012280F824204A68EF
:1004C0001F23072A0DD20668776B521E02EB8202A9
:1004D00093409F430B6893401F43776319E00220CA
:1004E000F8BD06680D2A0AD2376BD21F02EB8202D2
:1004F00093409F430B6893401F43376309E0F76ABB
:100500000D3A02EB820293409F430B6893401F43D6
:10051000F7620A68072306680A2A0AD3F7680A3AC4
:1005200002EB420293409F438B6893401F43F76066
:1005300008E0376902EB420293409F438B68934087
:100540001F4337610A68102A01D0112A20D1124BAB
:1005500002689A4217D193681B0219D4936843F436
:10056000000393600968102912D10C490C4A0968EC
:10057000B1FBF2F101EB8101490000E0491E00915D
:100580000029FBD104E0816A41F02001816201244D
:1005900080F824502046F8BD002401401C000020B3
:1005A00040420F002DE9F0414FF0000704003D46A6
:1005B0007ED0A06A002628B9E66284F8246020462E
:1005C00000F07EF82046FFF72BFFA16AC90600D491
:1005D00020B1A06A40F01000A06269E0A16A21F495
:1005E000885141F00201A1626268E169237B0A43FC
:1005F00047EA43010A43A1684FF48077B94209D022
:10060000012907D05FF0000194F814C0BCF1010F7C
:1006100002D00AE03946F7E7F3B1A36A43F02003BA
:10062000A362E36A43F00103E3622368D3F804C0E2
:100630002CF4694C4CEA010CC3F804C021688B68A7
:10064000DFF870C003EA0C0313438B60A168B94262
:100650000BD0012909D00CE0DFF85CC0A3690CEBDA
:1006600043330B4343F40061DFE7218A0D05A5F511
:1006700080152168CB6A23F470032B43CB62216879
:1006800089680E4B1940914208D1E662A16A21F0B7
:10069000020141F00101A162BDE8F081A06A20F0F1
:1006A000020040F01000A062E06A40F00100E06249
:1006B0000120F1E7FDF7E1FF00E0FFFFFE0E1FFF65
:1006C00000B585B00021009101910291039100686D
:1006D0000E49884218D10E48816941F40071816148
:1006E000816901F400710491816941F00401816123
:1006F0008069694600F004000490102000900320F7
:100700000190044800F0DEF805B000BD002401406F
:10071000001002400008014010B590F8211000229E
:10072000022905D00421816380F82020012010BD1A
:1007300001680B6823F00E030B6001680B6823F05F
:1007400001030B6090F84030C46B012101FA03F300
:10075000636080F8211080F82020104610BD000052
:1007600010B590F821100024022903D004218163E0
:1007700001243DE001680A6822F00E020A60016867
:100780000A6822F001020A601A4A0168914201D106
:10079000012121E0174A1432914201D110211BE0BE
:1007A000144A2832914201D1891515E0114A3C3290
:1007B000914201D189140FE00E4A5032914202D188
:1007C0004FF4803108E00B4A6432914202D14FF479
:1007D000801101E04FF08071064A083A5160012112
:1007E00080F82110002180F82010416B01B188476A
:1007F000204610BD0800024030B528B308C8134990
:1008000014221944B1FBF2F18900C16310498163DC
:10081000022141771A6843F6F0718A43D0E9001447
:100820002143D0E902452C43214304692143446913
:10083000214384692143114319600021416301224E
:1008400042770177084630BD012030BDF8FFFDBF7B
:100850000000024070B5044690F8200000250128F1
:100860000CD0012084F8200094F821600020012E93
:1008700006D084F820000225284670BD022070BDF5
:10088000022684F82160A0632068066826F001062D
:1008900006602046FFF7F0FDE06A00282068016846
:1008A00002D041F00E0106E021F004010160206851
:1008B000016841F00A0101602068016841F001010E
:1008C0000160D9E72DE9F84FDFF8B8910024A9F1CC
:1008D000040B23460F2709F1040AABF1040EC9E00B
:1008E0000125A5402A40AA427DD1674ED1F804C017
:1008F000ACEB0608B44532D014DCBCF1030F3AD09F
:1009000009DCBCF1000F2AD0BCF1010F1CD0BCF1F6
:10091000020F31D11DE0BCF1110F17D0BCF1120F45
:100920002AD119E0B8F5881F19D006DCB8F5803F48
:1009300015D0B8F5801F1FD111E0B8F5001F0ED0FB
:10094000B8F5041F18D10AE0CB6815E0CB681B1D71
:1009500012E0CB6808330FE0CB680C330CE08B68F7
:100960002BB1012B4FF0080303D0456104E00423B1
:1009700002E0056100E00023FF2A01D8064601E0FD
:1009800000F104064FEA840501D9A5F12005D6F847
:10099000008007FA05FC28EA0C0803FA05F548EA86
:1009A0000508C6F800804D68ED0062D5374DAE6988
:1009B00046F00106AE61AD6924F0030605F00105BD
:1009C0000095334D06EB050CDCF80850A607360FF2
:1009D00007FA06F825EA0805DFF8B880404503D194
:1009E0004FF0000817E044E0DFF8AC80404502D14A
:1009F0004FF001080FE0DFF8A480404502D14FF02E
:100A0000020808E0DFF89880404502D14FF0030863
:100A100001E04FF0040808FA06F848EA0508CCF8A7
:100A200008804D68D9F80060ED024D4601D51643A7
:100A300000E096432E604D68DAF80060AD0255463E
:100A400001D5164300E096432E604D68DBF8006048
:100A5000AD035D4601D5164300E096432E604D6818
:100A6000DEF80060ED03754601D5164300E09643BD
:100A70002E60641C0D682A46E5407FF431AFBDE866
:100A8000F88F00000804014000001110001002401F
:100A90000000014000080140000C0140001001402E
:100AA000001401400AB1016170470904FBE700002E
:100AB00001488068704700001000002070B50400F5
:100AC00025D094F83D00002520B984F83C502046FC
:100AD00000F0B8F8242084F83D002068016821F077
:100AE000010101602068016841F400410160206853
:100AF000016821F40041016000F0C8FA4D4A6168C4
:100B0000914201D84C4900E04C49884201D2012071
:100B100070BD4B492368B0FBF1F15E6826F03F06DB
:100B20000E435E606368934206D94FF4967359434F
:100B30004FF47A73B1FBF3F12368491C1E6A26F067
:100B40003F06314319626168914210D84900401E46
:100B5000B0FBF1F2521CC2F30B02042A01D20420B2
:100B600022E0B0FBF1F0401CC0F30B001CE0A268D7
:100B7000F2B301EBC10303EB0116431EB3FBF6F323
:100B80005B1C43F480431B0549D092B301EBC102C7
:100B900002EB0111401EB0FBF1F0401CC0F30B0052
:100BA00040F4804040F400402168CA694CF6FF736D
:100BB0009A431043C861D4E90710014320680268D2
:100BC00022F0C00211430160D4E90301014320680F
:100BD000826848F2FF339A4311438160D4E90501EA
:100BE00008432168CA6822F0FF021043C86001E090
:100BF0000EE016E02068016841F001010160256403
:100C0000202084F83D00256384F83E50002070BD0C
:100C100001EB4106431EB3FBF6F35B1CB3E7012077
:100C2000C2E701EB4101401EB0FBF1F0401CC0F3F4
:100C30000B00B7E7A086010080841E0000093D007C
:100C400040420F0010B586B0002100910191029141
:100C5000039100680F4988421AD10F4CA06940F0F7
:100C60000800A061A069694600F008000490C02057
:100C7000009012200190032003900848FFF722FE05
:100C8000E06940F40010E061E06900F400100490B5
:100C900006B010BD0054004000100240000C01409E
:100CA000024881680278114481607047100000207A
:100CB000074810B5016841F010010160032000F001
:100CC000A7F80F2000F006F800F050F8002010BD43
:100CD0000020024030B505461F4887B0C16941F089
:100CE0000401C161C06906A900F00400009001A8D8
:100CF00000F0ACF90498B0B100F0C8F94000174911
:100D0000174AB0FBF1F11748491E0260416040F2FA
:100D1000E7320021C0E903218160816100F056FCC7
:100D2000040003D015E000F0B1F9E8E70D4800F049
:100D3000B3FC04000DD11E2000F03CF8102D07D2AA
:100D4000002229461E2000F043F80748056000E015
:100D5000012407B0204630BD0010024040420F0081
:100D6000000800406C080020140000200F4808B55F
:100D7000816941F001018161816901F00101009106
:100D8000C16941F08051C161C069002200F080500A
:100D900000900F21901E00F01BF80548416821F0DB
:100DA000E06141F00071416008BD000000100240A8
:100DB00000000140002809DB00F01F0201219140E2
:100DC0004009800000F1E020C0F8001170470000E9
:100DD000F0B40E4B1B680C46C3F30223C3F10705A6
:100DE000042D00D90425191D072901D2002300E094
:100DF000DB1E012606FA05F1491E214099409E405E
:100E0000761E16403143F0BC02F01EB90CED00E036
:100E1000064900F0070208684FF6FF03184040EA51
:100E20000220034A10430860704700000CED00E008
:100E30000000FA052DE9F84305460078354CC00757
:100E400054D0E0690026C00008D4E06940F080502A
:100E5000E061E069012600F0805000902E480168B2
:100E6000C90512D40168804641F480710160FFF722
:100E70001FFE074605E000BFFFF71AFEC01B6428EF
:100E800023D8D8F80000C005F6D5206A10F44070C9
:100E900021D0A98801F4407181421CD0206A1F49E9
:100EA000012220F440700A6000220A602062C0071C
:100EB00011D0FFF7FDFD074641F2883808E000BF7A
:100EC000FFF7F6FDC11B414502D90320BDE8F883B9
:100ED000206A8007F4D5206A696820F440700843CE
:100EE00020621EB1E06920F08050E0612878800720
:100EF00005D56068A96820F4404008436060287800
:100F0000C00605D56068E96820F480000843606089
:100F10000020DBE700100240007000404004424225
:100F20002DE9F0470F46050061D0434E306800F0D0
:100F30000700B84209D2306820F00700384330601B
:100F4000306800F00700B84251D128683B4C810757
:100F500012D5400703D5606840F4E06060602878EF
:100F6000000703D5606840F4605060606068A9685D
:100F700020F0F000084360602878C00728D0686837
:100F8000012810D02168022810D0890700292EDA04
:100F9000616821F0030101436160FFF789FD80462C
:100FA00041F288390DE021688903EFE78901EDE717
:100FB000FFF77EFDA0EB0801494502D90320BDE8FB
:100FC000F0876068696800F00C00B0EB810FEFD12A
:100FD000306800F00700B8420BD9306820F00700F5
:100FE00038433060306800F00700B84201D001207B
:100FF000E5E72878400705D56068E96820F4E060F7
:10100000084360602878000706D56068296920F4E5
:10101000605040EAC100606000F058F86168084A1A
:10102000C1F30311515CC8400649086006480068D6
:10103000FFF750FE0020C2E70020024000100240EF
:10104000024800081C000020140000200F2202604B
:101050000C4A536803F003034360536803F0F00342
:101060008360536803F4E063C36052684FF4E06345
:1010700003EAD20202610448006800F00700086039
:10108000704700000010024000200240044805495B
:1010900000684968044AC1F30221515CC8407047A6
:1010A0001C000020001002401248000804480549B6
:1010B00000684968044AC1F3C221515CC8407047C6
:1010C0001C00002000100240124800080E4A51681F
:1010D0000E4801F00C03042B11D0082B0FD10C4843
:1010E000C1F38343C903C05C0AD55168084AC1F300
:1010F0004041921E515C054A5043B0FBF1F07047ED
:1011000004494843704700000010024000127A0072
:10111000F247000800093D002DE9F84F040070D0A7
:101120002078C04DC00749D06868C0F3810001280D
:1011300007D06868C0F38100022809D16868C0033D
:1011400006D52868800339D560680028E7D035E0E7
:101150006068B0F5803F0BD010B1B0F5A02F11D072
:10116000286820F480302860286820F4802002E07D
:10117000286840F480302860606890B1FFF798FCE0
:1011800006460AE0286840F480202860F0E700BFA7
:10119000FFF78EFC801B642873D828688003F7D57E
:1011A0000CE0FFF785FC064605E000BFFFF780FC7A
:1011B000801B6428F0D828688003F7D420789A4EE2
:1011C00080074FF001094FF0000839D5686810F02A
:1011D0000C0F07D06868C0F38100022809D1686845
:1011E000C00306D42868800714D52069012808D1D7
:1011F00010E02069B0B1C6F80090FFF759FC07462F
:1012000005E00AE1FFF754FCC01B0228C4D8286897
:101210008007F7D52868616920F0F80040EAC1002E
:1012200028600DE0C6F80080FFF742FC074604E0A6
:10123000FFF73EFCC01B022823D828688007F7D49C
:10124000207800072CD57948A169D9B1C0F8009061
:10125000FFF72EFC074604E0FFF72AFCC01B02281C
:101260000FD8686A8007F7D571484FF4FA510068C3
:10127000B0FBF1F0009000BF0098411E0091FAD23F
:101280000EE080E0C0F80080FFF712FC074604E0A3
:10129000FFF70EFCC01B022875D8686A8007F7D4D8
:1012A0002078400760D5E8690027C00008D4E869C5
:1012B00040F08050E861E869012700F0805000901C
:1012C0005C480168C90513D40168834641F4807104
:1012D0000160FFF7EDFB824606E000BFFFF7E8FB89
:1012E000A0EB0A0064284ED8DBF80000C005F5D555
:1012F000E06801280AD008B1052813D0286A20F038
:1013000001002862286A20F0040002E0286A40F008
:1013100001002862E06841F2883B98B1FFF7C8FB02
:1013200082460BE0286A40F004002862EEE700BF26
:10133000FFF7BEFBA0EB0A0159455AD8286A80077F
:10134000F6D50CE0FFF7B4FB824605E0FFF7B0FBF3
:10135000A0EB0A0159454CD8286A8007F6D41FB182
:10136000E86920F08050E861E06988B36968C1F3FA
:101370008101022944D00228C6F8608004D0FFF71A
:1013800097FB044638E034E0FFF792FB074604E0A1
:10139000FFF78EFBC01B02282BD828688001F7D4EA
:1013A000206AB0F5803F05D16868A16820F400305C
:1013B00008436860D4E908010843696821F474119E
:1013C00008436860C6F86090FFF772FB044606E0C9
:1013D00025E000BFFFF76CFB001B022809D8286836
:1013E0008001F7D51BE000BFFFF762FB001B02285E
:1013F00002D90320BDE8F88F28688001F4D40EE0FC
:101400000128F7D06868226A00F48031914204D143
:10141000616A00F47010884201D00120EAE70020E0
:10142000E8E700000010024000004242800442420F
:101430001C0000200070004070B5040009D0606AF4
:10144000002540B125616561A56294F8510040B165
:101450000CE0012070BD6068B0F5827FF4D0E561DA
:10146000F2E784F85050204600F040F8022084F85B
:1014700051002068016821F040010160A0882189A5
:1014800000F4827001F404410843A18901F4006171
:101490000843217C01F002010843217D01F0010194
:1014A0000843218B01F400710843217F01F03801CA
:1014B000084394F8201001F080010843218D01F4C5
:1014C0000051084321680860A069042101EA104026
:1014D000216848602068C16921F40061C1616565C7
:1014E000012084F85100002070BD000030B585B0A7
:1014F00000240094019402940394006815498842E2
:1015000025D11548C16941F48041C161C16901F427
:1015100080410491816941F00801816180690F4D2A
:1015200000F0080004904FF4204000900220019049
:101530000320039069462846FFF7C4F94FF4804022
:10154000CDE90004694628460294FFF7BBF905B0CF
:1015500030BD00000038004000100240000C014087
:101560007047704770B590F83C20012A26D00124BE
:1015700080F83C40022280F83D2003685A689D684C
:1015800022F070060A6832435A600D4B02689A4294
:1015900008D0B2F1804F05D00A4B9A4202D00A4BD4
:1015A0009A4204D1496825F080031943916080F87C
:1015B0003D40002180F83C10084670BD022070BDFF
:1015C000002C0140000400400008004010B5040059
:1015D00003D094F83D0010B107E0012010BD0020B9
:1015E00084F83C00204600F01FF8022084F83D00FB
:1015F000211D206800F0F8FF012084F8460084F8DF
:101600003E0084F83F0084F8400084F8410084F8EC
:10161000420084F8430084F8440084F8450084F8CC
:101620003D00002010BD000000B585B000210091F4
:10163000019102910391154A01681548914218D110
:10164000816941F400618161816901F40061049163
:10165000816941F0040181618069694600F00400FC
:1016600004904FF4407000900A48FFF72BF905B042
:1016700000BDB1F1804FFAD1C16941F00101C161F2
:10168000C06900F001000490F1E70000002C014067
:10169000001002400008014090F83D10012901D0DF
:1016A00001207047022180F83D100168CA6842F0AD
:1016B0000102CA6000680B49884208D0B0F1804F2F
:1016C00005D00949884202D00849884204D181687E
:1016D00001F00701062903D0016841F00101016012
:1016E00000207047002C014000040040000800402A
:1016F00070B5044690F83C000025012817D001265B
:1017000084F83C60022084F83D002068826822F062
:10171000770222F47F4282600868502838D00DDCBE
:1017200020284FD005DC90B3102811D14AE00220C8
:1017300070BD302846D040280AD13BE060282FD029
:1017400070280DD0B0F5805F03D0B0F5005F12D0E7
:10175000012584F83D60002084F83C00284670BDD7
:10176000CB68D1E90121206800F07AFF2068816808
:1017700041F0770109E0CB68D1E90121206800F050
:101780006FFF2068816841F480418160E1E719E0E2
:10179000CA684968206801F017F85021206806E0FF
:1017A000CA684968206801F04DF86021206800F09F
:1017B00061FFCEE7CA684968206801F005F840215A
:1017C0002068F4E7226801461046F0E770472DE9EB
:1017D000F041054690F83C0000260C46012810D048
:1017E000012085F83C0072B1042A1CD0082A2CD0B4
:1017F0000C2A50D00126002085F83C003046BDE878
:10180000F0810220FBE7D4E90012E368286800F0C9
:10181000EDFF2868816921F00C01816128688169E8
:10182000A26811430FE0D4E90012E368286801F0D0
:101830001BF82868816921F4406181612868816909
:10184000A26841EA02218161D5E72868D4E9002C29
:10185000277B036A016A21F480710162C16923F464
:10186000007321F0030141EA0C0121F0F00C39076B
:101870004FF400774CEA116107EA02221A43C16172
:1018800002622868C16921F00C01C1612868C16940
:10189000A26811432BE02868D4E90021E768036AB5
:1018A000D0F820C02CF4805CC0F820C0D0F81CC058
:1018B00023F400532CF4407C4CEA012121F4704CB9
:1018C0004FF6FF7101EA07314FF4005741EA0C016E
:1018D00007EA02321A43C16102622868C16921F431
:1018E0004061C1612868C169A26841EA0221C16101
:1018F00081E710B5040003D094F83D0010B107E073
:10190000012010BD002084F83C00204600F01EF8A5
:10191000022084F83D00211D206800F065FE0120B2
:1019200084F8460084F83E0084F83F0084F84000C4
:1019300084F8410084F8420084F8430084F84400AD
:1019400084F8450084F83D00002010BD70472DE963
:10195000F04104460068C66805694FF00007A90712
:1019600013D5B10711D5F91E016101202077206838
:1019700080698007204602D0FFF728FF04E000F0CE
:10198000B3F8204600F06EF92777680716D5700780
:1019900014D521686FF004000861022020772068C8
:1019A000806910F4407F204602D0FFF70FFF04E06B
:1019B00000F09AF8204600F055F92777280715D54A
:1019C000300713D521686FF00800086104202077E4
:1019D0002068C0698007204602D0FFF7F7FE04E0C8
:1019E00000F082F8204600F03DF92777E80616D58A
:1019F000F00614D521686FF01000086108202077E8
:101A00002068C06910F4407F204602D0FFF7DEFE58
:101A100004E000F069F8204600F024F92777E80791
:101A200008D0F00706D021686FF001000861204659
:101A300000F01AF9280608D5300606D521686FF09F
:101A4000800008612046FFF78BFD680608D5700608
:101A500006D521686FF040000861204600F00EF9BD
:101A6000A8060AD5B00608D521686FF020000861E5
:101A70002046BDE8F041FFF774BDBDE8F0810000ED
:101A800010B586B000210091019102910391036885
:101A9000124A02211248B3F1804F13D0114CA342D5
:101AA0000ED1936943F0040393619269039102F0AC
:101AB00004020492C022CDE900216946FEF702FF2C
:101AC00006B010BD936943F00403936192690091DD
:101AD00002F004020191CDE90312EEE7001002408A
:101AE0000008014000040040704770B5044690F8BB
:101AF0003C0000260D4601280FD0012084F83C0050
:101B00006AB1042A1DD0082A2FD00C2A3FD0012602
:101B1000002084F83C00304670BD022070BD206873
:101B200000F0B0FD2068816941F008018161206802
:101B3000816921F004018161206881692A6911436A
:101B400011E0206800F0C6FD2068816941F4006161
:101B500081612068816921F48061816120688169E7
:101B60002A6941EA02218161D2E7206800F0DEFDA6
:101B70002068C16941F00801C1612068C16921F094
:101B80000401C1612068C1692A69114311E020681C
:101B900000F0F8FD2068C16941F40061C16120686E
:101BA000C16921F48061C1612068C1692A6941EA83
:101BB0000221C161ACE710B5040003D094F83D00E8
:101BC00010B107E0012010BD002084F83C00204641
:101BD00000F01EF8022084F83D00211D206800F06E
:101BE00003FD012084F8460084F83E0084F83F009D
:101BF00084F8400084F8410084F8420084F84300EF
:101C000084F8440084F8450084F83D00002010BDAD
:101C100000B585B000210091019102910391006807
:101C20000D49884216D10D48C16941F00201C161D8
:101C3000C16901F002010491816941F008018161EB
:101C40008069694600F00800049001200090044873
:101C5000FEF738FE05B000BD000400400010024051
:101C6000000C01407047000000680349884201D120
:101C7000FFF716B870470000000800407047704733
:101C800010B504460068406994F84110C0F3C010D4
:101C9000212911D180B12068143050E8001F21F0B3
:101CA000800140E80012002AF5D1A06B08B1FEF7D0
:101CB00033FD204600F022FF2068406994F842106E
:101CC000C0F38010222911D180B12068143050E86F
:101CD000001F21F0400140E80012002AF5D1E06B1E
:101CE00008B1FEF719FD204600F0E1FE002010BD0E
:101CF00070470000F8B5016804460868CA684B6977
:101D000010F00F0F4FF0000559D003F0010602F458
:101D10009077374365D0C10705D0D10503D5616CF5
:101D200041F001016164410705D5D90703D0616C19
:101D300041F002016164810705D5D90703D0616CC8
:101D400041F004016164010707D502F0200131432D
:101D500003D0616C41F008016164616C00293AD0E4
:101D6000800604D5900602D5204600F0ADFF20681D
:101D70004069616CC0F38010090700D460B320464D
:101D800000F095FE20684069400621D52068143097
:101D900050E8001F21F0400140E80012002AF5D170
:101DA000E06BA8B16D494163E06BFEF7D9FC0028F8
:101DB00011D0E06B416B01B0BDE8F04008478306ED
:101DC0000FD593060DD52046BDE8F84000F07CBF46
:101DD0002046FFF78DFFF8BD2046FFF789FF6564B9
:101DE000F8BD266B2023012E7CD1C6067AD5D606F7
:101DF00078D508684868009048694FF002064006A8
:101E000040D5E16B086840680004000CE8D0A28D62
:101E10008242E5D9E085886920282DD020680C30E1
:101E200050E8001F21F4807140E80012002AF5D12B
:101E30002068143050E8001F21F0010140E8001232
:101E4000002AF5D12068143050E8001F21F040012D
:101E500040E80012002AF5D184F84230256320685A
:101E60000C3050E8001F21F0100140E80012002A59
:101E7000F5D1E06BFEF750FC6663A08DE18D401A52
:101E800081B22AE0A08DE18D401A81B2E08D002858
:101E9000A6D00029A4D022680C3252E8000F20F40A
:101EA000907042E80007002FF5D12068143050E808
:101EB000002F22F0010240E80027002FF5D184F81E
:101EC0004230256320680C3050E8002F22F01002C9
:101ED00040E80023002BF5D166632046FFF7CFFED4
:101EE000F8BDFFE705062BD5150629D594F8410066
:101EF0002128F5D1A068B0F5805F01D12069B0B18B
:101F0000206A411C2162216800784860E08C401EF4
:101F10000004000CE084E3D12068C16821F0800156
:101F2000C1602068C16841F04001C160D8E7206A03
:101F30000088C0F308004860206A801C2062E5E742
:101F40004006CDD55006CBD5CA68204622F04002C7
:101F5000CA6084F8413000F0F5F8C1E7B129000803
:101F600070B5040004D094F84100002510B106E0DB
:101F7000012070BD84F84050204600F023F8242052
:101F800084F841002068C16821F40051C1602046F6
:101F900000F0FCFE2068016921F490410161206895
:101FA000416921F02A0141612068C16841F4005172
:101FB000C1606564202084F8410084F842006563B4
:101FC000002070BD2DE9F04186B04FF000080546B5
:101FD000CDF80080CDF80480CDF80880CDF80C80D5
:101FE00000682349234C02260327884217D1E06961
:101FF00040F40030E061E06900F400300490A06932
:1020000040F00400A061A069694600F0040004905B
:102010000420CDE9000603971748FEF753FC174943
:102020002868884221D1E06940F48020E061E069BD
:1020300000F480200490A06940F00800A061A0692D
:102040000F4C00F0080004900815CDE90006694621
:1020500003972046FEF736FCE014CDE900086946F8
:102060002046CDF80880FEF72DFC06B0BDE8F081D3
:1020700000440040001002400008014000480040B9
:10208000000C014090F84230202B01D00220704714
:1020900021B11AB10023036300F0D4BE01207047C0
:1020A000704770472DE9F843044690F84100984680
:1020B00016460D46202802D00220BDE8F88385B1DF
:1020C0007EB100206064212084F84100FEF7F0FC1E
:1020D000A6848146E684A0682027B0F5805F02D000
:1020E00003E00120E9E7206910B12E4600250EE04B
:1020F00000260CE08021204600F0ECFEA8B9C6B115
:1021000016F8010B21684860E08C401EE084E08CEA
:102110004B464FF00002CDF800800028EAD14FF086
:102120004001204600F0D6FE40B184F84170032003
:10213000C3E735F8020BC0F30800E3E784F8417009
:102140000020BAE77047FEE73EB50024114800942E
:10215000019402940E4984600160047304750125A2
:1021600005614FF460214460C161FEF71BFA08B1BC
:10217000FEF798F90420CDE9000569460294054868
:10218000FEF792F9002801D0FEF78CF93EBD000061
:1021900000240140E40200202DE9F04F85B0002426
:1021A00036480094019402940394816941F010012F
:1021B0008161816901F010010491816941F0200180
:1021C0008161816901F020010491816941F004017C
:1021D0008161816901F004010491816941F0080184
:1021E00081618069012200F00800DFF894905503B6
:1021F000049029464846FEF755FCDFF888A041F2D6
:102200003807002239465046FEF74CFCDFF878B01C
:102210004FF48058002241465846FEF743FC009593
:10222000022601250396CDE9015469464846FEF78A
:1022300049FB202000901548CDE901046946584625
:10224000FEF740FB00970396CDE9015469465046DE
:10225000FEF738FBA802CDE900046946584602940F
:10226000FEF730FBCDF800800396CDE901546946B6
:102270005846FEF727FB05B0BDE8F08F001002407E
:1022800000100140000C0140000801400000111046
:102290000D4810B50B4901600C49416000214FF415
:1022A00080428160C0E9031241618161C1610162C4
:1022B000FEF704FC002803D0BDE81040FEF7F2B89A
:1022C00010BD00000054004014030020A08601004F
:1022D0000F4810B50D4901604FF482714160002133
:1022E0008160C1604FF400720161C0E90512C161F3
:1022F0000162416281620A21C162FFF79DF80028F4
:1023000003D0BDE81040FEF7CDB810BD0038004046
:102310006803002010B58AB0002426480494059470
:102320000694079408940994009401940294204917
:102330000394C0E900144FF6FF71C0E90241046143
:1023400044618461FFF742F908B1FEF7ABF84FF43E
:102350008050049004A91748FFF7CAF908B1FEF7A6
:10236000A1F81448FFF7C5FA08B1FEF79BF80894E6
:1023700008A910480994FFF7F5F808B1FEF792F89C
:102380000120CDE9004002940022694609480394E7
:10239000FFF71DFA08B1FEF785F8042269460548E3
:1023A000FFF715FA002801D0FEF77CF80AB010BD3F
:1023B000002C0140C003002010B58EB0002407940B
:1023C000089409940A940B941C2168460C94FDF718
:1023D00010FF1D484FF08041C0E900144FF6FF7117
:1023E000C0E9024104618461FFF7F0F808B1FEF72B
:1023F00059F84FF48050079007A91348FFF778F970
:1024000008B1FEF74FF81048FFF7D5FB08B1FEF70B
:1024100049F80B940BA90C480C94FFF7A3F808B1EA
:10242000FEF740F86020CDE90004029404226946DA
:1024300005480494FFF759FB08B1FEF733F802484A
:10244000FFF71EFB0EB010BD0804002010B58EB0C3
:1024500000240B941C2168460C94FDF7CAFE254805
:1024600007940894099422490A94C0E900144FF68D
:10247000FF71C0E9024104618461FFF79CFB08B170
:10248000FEF710F81B48FFF734FA08B1FEF70AF818
:102490000B940BA917480C94FFF764F808B1FEF7EA
:1024A00001F86020CDE90004029400226946114839
:1024B0000494FFF71AFB08B1FDF7F4FF0422694604
:1024C0000C48FFF712FB08B1FDF7ECFF0120CDE946
:1024D00007400994082207A906480A94FFF777F9EC
:1024E00008B1FDF7DFFF0348FFF7CAFA0EB010BDD1
:1024F00000040040500400200C4810B50A49016057
:102500004FF4E1314160002181600822C160C0E9DF
:1025100004128161C161FFF723FD002803D0BDE8EB
:102520001040FDF7BFBF10BD0044004098040020DC
:10253000FEE7FEE710B5502080F31188BFF34F8F00
:10254000BFF36F8F02F00CF818B104494FF08050C0
:102550000860002080F3118810BD000004ED00E049
:1025600030B593B028216846FDF743FE14210AA830
:10257000FDF73FFE002501200F95109511950104F0
:1025800012958DE8230004904FF4E010CDE9081077
:10259000022407946846FEF7BFFD08B172B6FEE755
:1025A0000AA90F2081E831004FF48060CDE90D05C4
:1025B00002210AA8FEF7B4FC08B172B6FEE74FF498
:1025C000004011900F940FA8FEF734FC002801D0B2
:1025D00072B6FEE713B030BD704700000148FFF748
:1025E000B6B900006C080020F0B50268194B1A4C0F
:1025F0001A4D4FF08047984205D0B84203D0A04210
:1026000001D0A84203D122F070064A6832439842B2
:1026100005D0B84203D0A04201D0A84203D122F491
:102620004074CA6822434C6922F08002224302604F
:102630008A68C2620A688262984201D109690163AC
:10264000012141610169C90703D0016921F001013C
:102650000161F0BD002C0140000400400008004072
:1026600010B5846842EA032224F47F440A432243DB
:10267000826010BD826822F070020A4342F00701B6
:102680008160704730B5036A026A22F0010202627B
:102690004268846924F073050C682C4323F002051A
:1026A0008B682B430A4DA8420BD123F00805CB6859
:1026B00022F440722B434D6923F0040315438A69C9
:1026C0002A434260846149684163036230BD00006F
:1026D000002C014030B5026A036A23F01003036244
:1026E000436884690D6824F4E64444EA05248D684F
:1026F00022F0200242EA05120B4DA8420ED1CD680D
:1027000022F0800242EA05124D6923F4406343EA55
:1027100085038D6922F0400243EA850343608461AA
:1027200049688163026230BD002C014030B5036A04
:10273000026A22F4807202624268C46923F4007360
:1027400024F073050C682C438D6843EA05230C4D77
:10275000A8420ED1CD6823F4006343EA05234D69F6
:1027600022F4405242EA05128D6923F4806342EA62
:1027700005124260C4614968C163036230BD000054
:10278000002C014030B5046A026A22F480520262D1
:102790004268C3690D6823F4E64343EA05238D6864
:1027A00024F4005444EA0534064DA84204D14D698E
:1027B00022F4804242EA85124260C36149680164A2
:1027C000046230BD002C014010B5036A046A24F095
:1027D00001040462846924F0F00444EA021423F042
:1027E0000A020A438461026210BD000070B5056AE6
:1027F000046A24F00104046284690F4EB04208D0D8
:10280000B0F1804F05D00D4EB04202D00C4EB04218
:1028100003D124F00304144301E044F001041A0737
:1028200024F0F00444EA126225F00A0301F00A01E0
:1028300019438261016270BD002C01400004004018
:102840000008004010B5036A046A24F01004046212
:10285000846923F0A00324F4704444EA023243EA7A
:1028600001118261016210BD30B5046A056A25F06C
:1028700010050562856925F4407545EA022222F4B7
:1028800070454FF6FF7202EA033224F0A0032A4398
:10289000A02404EA011119438261016230BD0000E5
:1028A0004FF0FF371E4C3946206801F0FDFC1DA596
:1028B0002846FDF7C5FC82B24FF47A7633462946A6
:1028C0002548FFF7EFFB294624A000F0ADFB394671
:1028D000206801F0E9FC24A52846FDF7B1FC82B28E
:1028E000334629461C48FFF7DDFB29461BA000F0B4
:1028F0009BFB3946206801F0D7FC25A42046FDF754
:102900009FFC82B2334621461348FFF7CBFB21469A
:1029100012A000F089FB304601F0A0FAFBE70000AE
:102920000400002041542B4D5154545553455243FB
:1029300046473D302C312C226573703332222C22D5
:102940006D717474222C22313233343536222C309E
:102950002C302C22220D0A00E004002062756666ED
:10296000203A2025730A000041542B4D5154544302
:102970004F4E4E3D302C223139322E3136382E31E9
:102980002E38222C313838332C310D0A000000004B
:1029900041542B4D5154545355423D302C226D71AE
:1029A00074742F636F6E74726F6C222C310D0A0079
:1029B00010B5406A0021C185C184FFF799F910BDA7
:1029C00070B5446A2068406994F84110C0F3C010A3
:1029D0000025212904D118B1E584204600F08EF8A5
:1029E0002068406994F84210C0F38010222904D175
:1029F00018B1E585204600F05AF8606C40F01000F0
:102A000060642046FFF774F970BD10B50146406A56
:102A1000096809684FF0000289062ED4C285016852
:102A20000C3151E8003F23F4807341E80034002C5E
:102A3000F5D10168143151E8003F23F0010341E86A
:102A40000034002CF5D10168143151E8003F23F027
:102A5000400341E80034002CF5D1202180F84210D9
:102A6000016B012909D101680C3151E8003F23F0C5
:102A7000100341E80034002CF5D14263016B0129B9
:102A800002D0FFF70DFB10BD818DFFF7F8F810BDE8
:102A900010B5406A01214163016B012902D0FFF7A3
:102AA00000FB10BD818D4908FFF7E9F810BD0168F2
:102AB0000C3151E8002F22F4907241E80023002BE2
:102AC000F5D10168143151E8002F22F0010241E8EC
:102AD0000023002BF5D1016B012909D101680C31CC
:102AE00051E8002F22F0100241E80023002BF5D11D
:102AF000202180F8421000210163704701680C31E9
:102B000051E8002F22F0C00241E80023002BF5D14C
:102B1000202180F841107047F8B50546002601468F
:102B200028A0009600F080FA2AA12846FDF76CFB49
:102B3000294C20B929A12846FDF766FB20B169463A
:102B4000206801F063FB37E027A12846FDF75CFB16
:102B500018B127A000F068FA2EE028A12846FDF75A
:102B600053FB002828D028A000F05EFA7B212846DD
:102B7000FDF75CFB04467D212846FDF777FB4CB151
:102B800040B1051B6D1C2A4621462448FDF718FB61
:102B9000224846552249214800F0FEFC204C21A045
:102BA00094F9001000F040FAA17826A000F03CFA59
:102BB00061782BA000F038FA4FF480712F48FDF7B0
:102BC00018FBF8BD6D71747420646174613A2573EB
:102BD0000A0000004F4B00000400002057494649FE
:102BE00020474F54204950004552524F5200000098
:102BF0006D717474206572720A0000004D51545456
:102C000053554252454356006D717474207265638A
:102C1000656976652121210A000000006C0700200B
:102C20000A0000206361725F7374617475732E63B0
:102C3000757272656E745F7370656564203D2025E2
:102C4000640A00006361725F7374617475732E644B
:102C50006972656374696F6E203D2025640A000007
:102C60006361725F7374617475732E7370656564EC
:102C70005F6D6178203D2025640A00006C0600200D
:102C800070B50446FEF7FCFFE06B006840680B4D32
:102C9000C0F5807082B20A492A8001F58070FDF784
:102CA0008FFA4FF4807206492046FFF7EBF9298826
:102CB000BDE870400348FFF72FBF00000800002068
:102CC0006C0500206C06002008B590F842102229FF
:102CD00001D0022008BD82684FF480539A4201D18E
:102CE000016921B1816A9A421BD04AB10AE00268A7
:102CF000816A5268C2F308020A80816A891C08E06E
:102D0000026972B10268526802F07F020A70816A39
:102D1000491C8162C18D491E0904090CC18503D07B
:102D20001BE002685268F1E70168CA6822F02002DD
:102D3000CA600168CA6822F48072CA6001684A6980
:102D400022F001024A61202180F8421000214163F3
:102D5000026B012A03D0FFF7A3F9002008BD01632D
:102D600001680C3151E8002F22F0100241E80023E5
:102D7000002BF5D101680A68D20602D50A684968B5
:102D80000091818DFEF77BFFE7E7000070B50446F8
:102D900000680169E26821F4405111430161216931
:102DA000A0680843616908432168CA6841F20C635E
:102DB0009A430243CA6020684169A26921F44071C4
:102DC000114341611E492068884202D1FEF76EF925
:102DD00001E0FEF75BF900EBC00101EB0012606857
:102DE00064218000B2FBF0F3B3FBF1F36FF018063F
:102DF0007343B2FBF0F5B2FBF0F605EB830532232B
:102E000003EB0515B5FBF1F5B6FBF1F605F0F005A2
:102E100005EB0615B2FBF0F6B2FBF0F0B0FBF1F0FB
:102E20006FF01802504306EB800003EB0010B0FB7C
:102E3000F1F0216800F00F002844886070BD0000A8
:102E40000038014038B5816204468285002013466F
:102E50006064222284F84220E56B1B4AAA62E56B7B
:102E60001A4AEA62E56B1A4A2A63E26B50630A4621
:102E70002168E06B091DFDF7EDFC206801684068E2
:102E80000090206948B120680C3050E8001F41F4E0
:102E9000807140E80012002AF5D12068143050E813
:102EA000001F41F0010140E80012002AF5D120681E
:102EB000143050E8001F41F0400140E80012002AA1
:102EC000F5D1002038BD00000B2A0008912A000827
:102ED000C12900082DE9F843984617460D460446D7
:102EE000089E24E0701C22D0FDF7E2FDA0EB080054
:102EF000B0421AD8CEB12068C168490717D5802DD5
:102F000015D0402D13D00168C94309070FD40168BB
:102F10000025406800902046FFF7C9FD0820606446
:102F200084F840500120BDE8F8830320FBE72068C7
:102F3000006835EA000004D00020B842D2D000205A
:102F4000F1E70120F9E7000008B50848FEF7D2FED6
:102F5000064800680168C90607D501684068009006
:102F6000BDE808400148FFF78BBE08BDE004002023
:102F7000F8B5284C2648002620604FF4E130C4E91B
:102F800001060C20E660C4E90460A6612046E66103
:102F9000FEF7E6FF08B1FDF785FA1F48416941F0E9
:102FA0000101416140691B4D00F00100009048356E
:102FB0001A48C5E900068020E8602020C5E90560C0
:102FC0002E61AE602846EE61FDF716FC08B1FDF7F4
:102FD00069FAE563002205210D206C62FDF7F8FE19
:102FE0000D20FDF7E7FE002205212720FDF7F0FE6A
:102FF0002720FDF7DFFE2068C16841F01001C160A5
:10300000BDE8F8404FF4807205490248FFF73AB82E
:1030100000480040E0040020001002403000024060
:103020006C050020FEE700000FB4054B10B503A9A6
:10303000044A029800F02CF810BC5DF814FB000064
:1030400049320008880000200907090E002804DB27
:1030500000F1E02080F80014704700F00F0000F14C
:10306000E02080F8141D7047004870478C00002055
:1030700002E008C8121F08C1002AFAD17047704741
:10308000002001E001C1121F002AFBD1704700009F
:103090002DE9FF4F8BB09A460F460546002606E005
:1030A00025280BD052460D9990476D1C761C287828
:1030B0000028F5D10FB03046BDE8F08F0024A046BF
:1030C0000122604900E0044315F8013F203B02FA69
:1030D00003F00842F7D128782E2817D115F8010FF0
:1030E00044F004042A280ED06FF02F022878A0F1B3
:1030F000300109290AD808EB880102EB410100EBF5
:1031000001086D1CF2E757F8048B6D1C28786928BC
:103110003ED006DC0028CDD063280BD0642804D133
:1031200036E0732810D075284BD052460D99904741
:10313000761C85E017F8040B8DF8000000208DF850
:103140000100E946012003E057F8049B4FF0FF30EF
:1031500061074FF0000401D40AE0641C44450DDA15
:103160008442FADB19F804100029F6D106E0641C49
:103170008442FCDB19F804100029F8D1264404E04D
:1031800019F8010B52460D999047641EF8D257E08A
:1031900001CF4FF00A0B002802DA40422D2102E055
:1031A000210504D52B218DF82410012103E0E1072E
:1031B00005D02021F7E70DF1200908910CE000214E
:1031C000F9E701CF4FF00A0BF9E75946FDF766F82A
:1031D00001F1300209F8012D0028F6D1ADEB09000C
:1031E00000F1200B600701D44FF00108D84502DD43
:1031F000A8EB0B0000E000208046002406E009A8B0
:103200005246005D0D999047641C761C08988442D4
:10321000F5DB04E0302052460D999047761CB8F15A
:103220000001A8F10108F5DC05E019F8010B524690
:103230000D999047761CBBF10001ABF1010BF4DC5A
:103240006D1C34E70928010013B54FF0FF3301224C
:1032500069460248FEF726FF00981CBD980400202E
:1032600010B543680446934201D3002010BD01EB22
:1032700003105B1C4FF0FF316360816041600021EF
:10328000C16010BD017000214260C0E90231704789
:10329000002101604160491E816070472DE9F84FAF
:1032A0001D461646894604466FF0010B4FF0FF3A63
:1032B000D0F804808AE02C2F7ED00CDC0D2F04D0B7
:1032C00004DC092F7FD00A2F11D17CE0202F7AD087
:1032D000222F0CD160E05D2F31D004DC3A2F26D0B4
:1032E0005B2F04D10CE07B2F0AD07D2F27D00A98CA
:1032F00000902B4632464946204600F0A2F853E0A3
:1033000008F101088DB3294620460A9AFFF7A8FF65
:1033100080B1A1684A1C04D005EB0111CA68521C97
:10332000CA607B2F09D0022101702168416060686A
:10333000401E75E05046BDE8F88F0121F4E7A5B1C5
:103340007D2F02D0022360680AE00123FBE700BF63
:1033500005EB00114F687F1C02D08F687F1C05D0E1
:10336000401EF5D5411C09D00AE02CE00F789F42A1
:1033700004D1521CC4F808A08A60F3E75846DAE783
:10338000002820DB05EB00114A68521C02D0896836
:10339000491C45D0401EF3E70A9800902B46324660
:1033A0004946204600F08BF80028C4DBA06808F1ED
:1033B0000108411C07D000E013E025B105EB001027
:1033C000C168491CC1602068401C20602268B2426C
:1033D00004D219F80270002F7FF46DAF65B36068F6
:1033E00028E0002DEFD0A0680146401CEBD005EB93
:1033F000011000780228E6D00128E4D060680CE0D3
:1034000005EB00110A78022A01D0012A05D14A6889
:10341000521C02D08968491C02D0401EF0D5D2E768
:10342000A060D0E705EB00114A68521C02D0896801
:10343000491C03D0401EF5D540467CE76FF00200E2
:1034400079E72DE9F041056804461646069F2846AF
:103450001BE02C2A1ED008DC092A1BD00A2A19D00E
:103460000D2A17D0202A06D114E03A2A12D05D2A5C
:1034700010D07D2A0ED0203A5F2A04D36FF00100CD
:103480002560BDE8F081401C2060B04202D20A5C99
:10349000002ADED153B13A4619462046FFF7E0FE36
:1034A00048B12A4608212368FFF7ECFE2068401E39
:1034B00020600020E5E74FF0FF302560E1E72DE9CF
:1034C000F04705680446DDF82090681C16466FF04A
:1034D0000107206054E0222A02D05C2A13D04CE07D
:1034E00053B14A4619462046FFF7BAFE38B16A1C66
:1034F00004212368FFF7C6FE0020BDE8F0874FF0E7
:10350000FF302560F9E7401CB04236D220600A5CEB
:10351000662A32D008DC222A2FD02F2A2DD05C2A0E
:103520002BD0622A35D128E06E2A26D0722A24D0E8
:10353000742A22D0752A2CD1401C4FF0000C206038
:1035400013E0A0F13008B8F10A0F07D3A0F1410849
:10355000B8F1060F02D3613806281AD2521C0CF1BA
:10356000010C2260BCF1040F05DA2268B24202D2DB
:10357000885C0028E5D1501E20602068401C206037
:10358000B04202D20A5C002AA5D16FF00200256089
:10359000B3E738462560B0E72DE9F043ADF5057D8A
:1035A0008046894681A8FFF773FE4046FCF748FE37
:1035B00002462020009001AB414681A8FFF76EFE35
:1035C000060005D54FF0FF300DF5057DBDE8F08311
:1035D000012E03DB9DF80400012802D06FF00100EA
:1035E000F2E7012401AF2DE007EB04110D4617A20D
:1035F000404600F03FF860B1294618A2404600F06E
:1036000039F870B1294618A2404600F033F880B16D
:1036100017E0696901EB0800FCF733FE89F8000048
:103620000EE0696901EB0800FCF72BFE89F8010048
:1036300006E0696901EB0800FCF723FE89F8020047
:10364000641C641CB442CFDB0020BDE7637572725A
:10365000656E745F73706565640000007370656506
:10366000645F6D6178000000646972656374696FFE
:103670006E00000070B5054608780C461646042812
:103680000ED11046FCF7DCFD0146D4E90102121A06
:10369000914205D128443146FCF7D9FD002801D0DC
:1036A0004FF0FF3070BD00001CB5FDF701FBFEF7C9
:1036B00057FFFEF771FDFEF747FDFEF7E9FDFEF748
:1036C00007FEFEF727FEFEF777FEFEF7BFFEFEF7CA
:1036D00013FFFFF74DFC0EA0FFF7A6FC032200210D
:1036E000012000F02DFD0D4900234FF400724860C9
:1036F0000320CDE900010AA10C4800F0CBFE01280F
:1037000001D072B6FEE700F045FC72B6FEE700009D
:103710006170702072756E696E670A00000000208B
:103720005461736B5F4D717474000000A128000830
:103730002DE9F041184C0F460546E6682068001D4B
:1037400000F08AFA38B9206890F82C1001208840DF
:10375000216981432161681C07D137B12168BDE827
:10376000F0410E48091D00F0CBBA20683544B5423F
:103770004560216805D2A06BBDE8F041091D00F04D
:10378000A7BA606B091D00F0A3FAA06A854200D2B7
:10379000A562BDE8F0810000200000209009002013
:1037A0002DE9F041054600F0B7FA2E4CA068401C08
:1037B000A06020682C4F10B1606940B32DE02560F7
:1037C000A068012829D1002606EB860007EB8000BF
:1037D00000F070FA761C072EF6D323488C3000F0E8
:1037E00069FA2148A03000F065FA1F48B43000F0B3
:1037F00061FA1D48C83000F05DFA1B48DC3000F06B
:1038000059FA19488C3060631430A06305E02068D1
:10381000E96AC06A884200D82560606A401C60621C
:10382000E96A0120226988401043206101EB810090
:1038300007EB8000291D00F063FA00F08DFA606943
:1038400000280CD02068E96AC06A884207D207497C
:103850004FF080500860BFF34F8FBFF36F8FBDE80C
:10386000F081000020000020B408002004ED00E0FA
:1038700010B5044690F8510058B101280CD0022828
:103880000FD0502080F31188BFF34F8FBFF36F8F9D
:10389000FEE7206B00F074FA2046BDE8104000F00F
:1038A0006FBA10BD10484FF44061420706D0C01DEA
:1038B0000D4920F00700411AC1F540610B4A002371
:1038C0000144C2E900030839183A21F007011160E8
:1038D0004B600B600B1AC0E9001393604FF000407F
:1038E0005360506170470000A4090020740000205C
:1038F000144E154CA6F1C8074FF08058DFF84C90D5
:1039000012E000BF00F008FAF068C568281D00F05A
:10391000A3F9A068401EA0606068401E606000F0CF
:103920001BFA2846FFF7A4FF60680028EAD1386830
:103930000128F9D9C9F80080BFF34F8FBFF36F8F0B
:10394000F2E700007C0900202000002004ED00E0E8
:103950000346009829B10260C0E90F31012100F04F
:1039600011BC0060F8E700002DE9F05F8846DDE952
:103970000B941546834691009A460A9EA522206B19
:10398000FCF730FC6FF00301206B01EB850108446C
:1039900020F00707780707D0502080F31188BFF385
:1039A0004F8FBFF36F8FFEE70025B8F1000F0FD0E8
:1039B0005FF00000221818F8001082F8341018F890
:1039C000001011B1401C1028F4D384F8435001E0DA
:1039D00084F83450072E00D30626E662C4E9116548
:1039E000201D00F072F904F1180000F06EF9246156
:1039F000C6F107006462A061E56484F85050524645
:103A00005946384600F016F92060B9F1000F01D090
:103A1000C9F80040BDE8F09F30B5114900E01146FB
:103A20000A688242FBD34B685C18844203D1406829
:103A300018444860084643681C18944209D1084C51
:103A4000183C2468A24209D052681A4442600A68AD
:103A500012680260814200D0086030BD0460F9E75E
:103A60007400002010B5044600F056F9A06B28B190
:103A70005FF0000400F070F9204610BD0124F9E762
:103A80000648416B096829B1416BC968C968496832
:103A9000816270474FF0FF31FAE7000020000020FC
:103AA00008484068401C4FF0500080F3118804D053
:103AB000BFF34F8FBFF36F8FFEE7BFF34F8FBFF39F
:103AC0006F8FFEE77C0000202DE9F041044600F0F6
:103AD00023F994F9455004F1240609E0606A48B1DD
:103AE000304600F0E9FD08B100F0E6F96D1E6DB258
:103AF000002DF3DC4FF0FF3684F8456000F02CF920
:103B000000F00AF994F9445004F1100709E0206923
:103B100048B1384600F0D0FD08B100F0CDF96D1E77
:103B20006DB2002DF3DC84F84460BDE8F04100F094
:103B300013B900002DE9F0410546002700F060FAB6
:103B4000354E306808B9FFF7ADFE7069054216D1F1
:103B5000ADB1083568070ED005F00700C0F10800C8
:103B60000544680707D0502080F31188BFF34F8FBA
:103B7000BFF36F8FFEE715B17068854202D900F080
:103B8000D5FD39E02448183001460C6801E0204694
:103B90000C466168A94202D221680029F7D1316838
:103BA0008C42ECD007682168016060680837411BCF
:103BB00010290ED96019420707D0502080F31188D0
:103BC000BFF34F8FBFF36F8FFEE741606560FFF774
:103BD00023FF61687068401A7060B268904200D23A
:103BE000B060706901430020C4E90001F068401C26
:103BF000F06000F09BFD0FB900F04CF8780707D09B
:103C0000502080F31188BFF34F8FBFF36F8FFEE713
:103C10003846BDE8F08100005C00002004490868D7
:103C200018B10868826C521C8264086870470000F2
:103C30002000002010B5031F4FF080741C601B1F74
:103C400021F001011960191F024B0B601439403833
:103C50000A6010BDA13A0008D0E9013201699A60FA
:103C6000D0E901235A604A68824201D182684A60E1
:103C7000002202610868401E086008687047000062
:103C8000034B036003F1540008608020106070470C
:103C900090000020502080F31188BFF34F8FBFF3B6
:103CA0006F8FFEE7502080F31188BFF34F8FBFF373
:103CB0006F8FFEE700F108014FF0FF32C0E90112FB
:103CC000C1600161002101607047002101617047FE
:103CD00030B50B685A1C02D000F1080202E00269FC
:103CE00004E02246546825689D42FAD953684B6027
:103CF00099608A60516008610168491C016030BDAB
:103D000042684A6093688B6093685960916008616B
:103D10000168491C01607047502080F31188BFF38F
:103D20004F8FBFF36F8F0A494868401C48600128D5
:103D30000CD10848006810F0FF0F07D0502080F326
:103D40001188BFF34F8FBFF36F8FFEE770470000FE
:103D50007C00002004ED00E00849486828B1401EBE
:103D6000486001D180F311887047502080F311889A
:103D7000BFF34F8FBFF36F8FFEE700007C00002082
:103D800070B500282AD0164DA0F108046068696952
:103D9000084207D1502080F31188BFF34F8FBFF343
:103DA0006F8FFEE722683AB1502080F31188BFF38D
:103DB0004F8FBFF36F8FFEE78843606000F020F9FC
:103DC00060686968084468602046FFF725FE286936
:103DD000401C2861BDE8704000F0A8BC70BD000028
:103DE0005C0000204FF0E020002101618161054965
:103DF0004FF47A720968B1FBF2F1491E4161072163
:103E0000016170471C00002010B5FCF7C3F911498F
:103E100010280ED300F1E02090F8F0030A789042C9
:103E200007D2502080F31188BFF34F8FBFF36F8FFD
:103E3000FEE709480068896800F4E060884207D915
:103E4000502080F31188BFF34F8FBFF36F8FFEE7D1
:103E500010BD00007C0000200CED00E010B5020059
:103E600014D00F48006B38B1502080F31188BFF395
:103E70004F8FBFF36F8FFEE700F0C2F800211046AE
:103E8000FFF756FC00F052FC002807D105494FF01F
:103E900080500860BFF34F8FBFF36F8F10BD0000DD
:103EA0002000002004ED00E002490A6A0260C968AF
:103EB000416070472000002001490120C86170471F
:103EC0002000002010B50C4650B10949096818318E
:103ED000FFF7FEFE2046BDE810400121FFF728BC99
:103EE000502080F31188BFF34F8FBFF36F8FFEE731
:103EF0002000002070B5040047D0A26CA2B1606C15
:103F0000884200D30146E06A88423ED0012A3CD173
:103F10001E4D2A6894420FD1502080F31188BFF3C0
:103F20004F8FBFF36F8FFEE7502080F31188BFF3F0
:103F30004F8FBFF36F8FFEE7E162A269002A02DBB9
:103F4000C1F10701A161124E00EB8000616906EB2F
:103F50008000814219D1201DFFF77EFE012130B97A
:103F600094F82C002A6901FA00F082432A61E06A81
:103F70002A6981401143296100EB800006EB800033
:103F8000211DBDE87040FFF7BBBE70BD20000020C2
:103F9000B408002010B586B00024039405AA04A933
:103FA00003A80494FFF76CFEDDE903010094CDE95A
:103FB000011000230EA11048059A00F098FA0F494D
:103FC0000028C86211D0502080F31188BFF34F8FB2
:103FD000BFF36F8F4FF0FF30886201204861CC60E3
:103FE00006B0BDE8104000F057B806B010BD0000A4
:103FF00049444C4500000000F13800082000002032
:104000000248016B491C016370470000200000203A
:1040100010B51F4C206B10B10120E06110BD0020D5
:10402000E06120684FF0A531006B02688A4208D138
:1040300042688A4205D182688A4202D1C0688842B9
:1040400004D0216820683431FFF72CFE2069114923
:10405000B0FA80F0C0F11F0000EB800051F8202082
:104060006AB101EB800000F10802416849684160D3
:10407000914201D149684160C868206010BD50205C
:1040800080F31188BFF34F8FBFF36F8FFEE70000FF
:1040900020000020B40800201CB5264908780190B3
:1040A000FF20087008788DF800009DF800009DF84A
:1040B000002000F0F000904207D0502080F31188DB
:1040C000BFF34F8FBFF36F8FFEE79DF800001A4CD0
:1040D00000F0500020700720A06005E09DF800204F
:1040E00052008DF80020401E9DF800201206F5D4E5
:1040F000A060032807D0502080F31188BFF34F8FB2
:10410000BFF36F8FFEE74FF44070A0600198087016
:104110000A48016841F470010160016841F0704192
:104120000160FFF75FFE00206060FBF7FDFF0020ED
:104130001CBD000000E400E07C00002020ED00E059
:10414000F8B517460E46050013D005FB06F04830BB
:10415000FFF7F0FC04000AD0002084F8460004F1C8
:1041600048023B46314628460094FFF7F1FB2046C3
:10417000F8BD502080F31188BFF34F8FBFF36F8FCE
:10418000FEE7000070B50D46040025D0FFF7C4FD22
:10419000D4E90F20216802FB0011A1600021A16376
:1041A000216861600A46D4E90F01401E00FB01212D
:1041B000E16021464FF0FF3001F8440F487004F1F0
:1041C00010008DB1FFF776FD04F12400FFF772FDBA
:1041D000FFF7C2FD012070BD502080F31188BFF3AE
:1041E0004F8FBFF36F8FFEE721690029F0D000F0F9
:1041F00063FA0028ECD004494FF080500860BFF308
:104200004F8FBFF36F8FE3E704ED00E070B50E460C
:10421000040009D0206C78B1502080F31188BFF3DE
:104220004F8FBFF36F8FFEE7502080F31188BFF3ED
:104230004F8FBFF36F8FFEE7206848B9A06838B191
:10424000502080F31188BFF34F8FBFF36F8FFEE7CD
:10425000FFF7DAFD5020EFF3118580F31188BFF3EB
:104260004F8FBFF36F8FA16BE06B884218D994F921
:104270004500491CA163411C04D0401C84F8450042
:1042800001200EE0606A0028FAD004F1240000F05A
:1042900013FA0028F4D0002EF2D001203060EFE7AE
:1042A000002085F3118870BD2DE9F343002683B00B
:1042B0000400354609D0206C78B1502080F3118875
:1042C000BFF34F8FBFF36F8FFEE7502080F311884D
:1042D000BFF34F8FBFF36F8FFEE700F033F9DFF8C6
:1042E0003C814FF000094FF0805748B9049838B12D
:1042F000502080F31188BFF34F8FBFF36F8FFEE71D
:10430000FFF70AFDA06BC8B1401EA063206810B97A
:10431000FFF784FCA060206950B104F1100000F0A8
:10432000CBF928B1C8F80070BFF34F8FBFF36F8F80
:10433000FFF712FD012005B0BDE8F083049808B135
:1043400066B10FE03DB1502080F31188BFF34F8F6D
:10435000BFF36F8FFEE7FFF7FFFC5DE06846FFF7F6
:10436000A3FD0126FFF7F8FCFFF74AFEFFF7D4FC98
:1043700094F94400401C01D184F8449094F945001C
:10438000401C01D184F84590FFF7E6FC04A968467B
:1043900000F046F80028204612D0FFF795FB00F009
:1043A000C5F92046FFF75EFB0028A9D09DB3FFF7B3
:1043B000B3FC606A50B3206B0068C0F1070126E0CF
:1043C000FFF750FBE0B1206838B9FFF7A5FCA06803
:1043D00000F02CF90546FFF7BFFC04F12400049916
:1043E000FFF770FD2046FFF76FFB00F09FF90028F4
:1043F00086D1C8F80070BFF34F8FBFF36F8F7FE790
:104400002046FFF761FB00F091F979E70021A068F1
:10441000FFF770FD9FE7FFE700208CE704ED00E069
:104420002DE9F0410C46050011D0C4B1FFF774FC32
:10443000174BDA686E682068911B471C17D02F68ED
:104440001B6A9F4219D0964217D8012410E05020D1
:1044500080F31188BFF34F8FBFF36F8FFEE75020BB
:1044600080F31188BFF34F8FBFF36F8FFEE70024F7
:10447000FFF772FC2046BDE8F081884205D9401A5A
:1044800020602846FFF710FDF1E700202060DCE700
:10449000200000202DE9FF5F8346DDE90E87994665
:1044A00016468A469000FFF745FB05001CD05420B5
:1044B000FFF740FB040014D00020256384F851006E
:1044C000CDE90240CDE900874B4632465146584679
:1044D000FFF74AFA2046FFF763F9012004B0BDE870
:1044E000F09F2846FFF74CFC4FF0FF30F6E7F0B5A1
:1044F00085B0DDE90B640A9DA6B1DCB154270097B5
:104500002663022684F85160002604AFCDE90246F6
:10451000CDE90057FFF728FA2046FFF741F9049844
:1045200005B0F0BD502080F31188BFF34F8FBFF36B
:104530006F8FFEE7502080F31188BFF34F8FBFF3DA
:104540006F8FFEE70548416919B1006B18B1002073
:1045500070470120704702207047000020000020B3
:104560002DE9F0412F4C0026206B28B1A069401C9A
:10457000A0613046BDE8F081E5686D1CE56013D1AF
:10458000606B006838B1502080F31188BFF34F8F03
:10459000BFF36F8FFEE7606BA16B6163A063206A5E
:1045A000401C2062FFF76CFAA06ADFF87C8085422D
:1045B00009D3606B0068A0B1606BC068C768786899
:1045C000854211D2A0622068C06A00EB800158F8D1
:1045D0002100012800D90126E0690028C9D0012660
:1045E000C7E74FF0FF30EDE7381DFFF735FBB86A3E
:1045F00018B107F11800FFF72FFBF96A01202269B3
:1046000088401043206101EB810108EB8100391DD6
:10461000FFF776FBF86A2168C96A8842C9D3012688
:10462000C7E7000020000020B408002070B5040097
:104630004FF0000034D01E4DE16A2A68D26A9142E0
:104640002FD2A069002804DB2868C06AC0F10700E7
:10465000A061184E01EB8101606906EB810188427F
:104660001AD1201DFFF7F8FA012130B994F82C0077
:104670002A6901FA00F082432A612868C06AE06270
:104680002A6981401143296100EB800006EB80001C
:10469000211DFFF735FB02E02868C06AE0620120B7
:1046A00070BD616C2A68D26A9142F8D370BD000077
:1046B00020000020B40800202DE9F041C068C46843
:1046C000ACB104F118000746FFF7C6FA154D286B88
:1046D0000126A0B139461448FFF712FBE06A2968A9
:1046E000C96A88421CD90120EE61BDE8F0815020E2
:1046F00080F31188BFF34F8FBFF36F8FFEE7201D4C
:10470000FFF7AAFAE16A2A6906FA01F01043286164
:1047100001EB81000449B43901EB8000211DDBE786
:104720000020E2E720000020680900202DE9F04782
:104730002C4D00242746286B38B1FFF7EDFA286B83
:10474000401E2863286B40B146E0502080F311885A
:10475000BFF34F8FBFF36F8FFEE7A968224E012092
:10476000D1B3A6F1B40980463068E8B1F068C468F6
:1047700004F11800FFF770FA201DFFF76DFAE06AE8
:104780002A6908FA00F11143296100EB800109EB65
:104790008100211DFFF7B4FAE06A2968C96A8842DE
:1047A000E2D3C5F81C80DFE70CB1FFF769F9AC690B
:1047B00044B14646FFF7D4FE00B1EE61641EF9D164
:1047C0000020A861E86938B1084901273807086066
:1047D000BFF34F8FBFF36F8FFFF7BEFA3846BDE8C8
:1047E000F0870000200000206809002004ED00E0B0
:1047F000010202030405060708090A0B0C0D0E0F3F
:104800001010000000000000000001020304060771
:10481000080900000000010203040040404040403D
:104820004040404041414141414040404040404083
:1048300040404040404040404040400502020202AB
:1048400002020202020202020202022020202020B2
:10485000202020202002020202020202909090906A
:104860009090101010101010101010101010101048
:1048700010101010101002020202020288888888AC
:1048800088880808080808080808080808080808A8
:104890000808080808080202020240001B48000835
:1048A000C0480008000000209000000070300008A0
:1048B00050490008900000201819000080300008BE
:1048C00000000000000000000000000000000000E8
:1048D00001000000100000000000000000127A003B
:1048E00000000000000000000000000000000000C8
:1048F00000000000000000000000000000000000B8
:1049000000000000000000000000000000000000A7
:104910000000000000000000000000000000000097
:104920000000000000000000000000000000000087
:104930000000000000000000000000000000000077
:10494000AAAAAAAA000000000000000000000000BF
:04000005080000ED02
:00000001FF
